S011000045464D33325F426173652E733337CC
S113000000000220D90300000504000005040000DC
S113001005040000050400000504000005040000B8
S1130020050400000504000005040000910A000016
S11300300504000004040000310C0000790C0000E9
S11300400504000005040000050400000504000088
S11300500504000005040000050400000504000078
S11300600504000005040000050400001952000006
S11300700504000005040000050400000504000058
S11300800504000005040000050400000504000048
S11300900504000005040000050400000504000038
S11300A00504000005040000050400000504000028
S11300B0050400000504000005040000BD4F000015
S11300C00504000005040000050400000504000008
S11300D005040000050400000504000010B5054CEB
S11300E0237833B9044B13B10448AFF300800123E0
S11300F0237010BDF00100200000000030980000C3
S113010008B5034B1BB103490348AFF3008008BD96
S113011000000000F401002030980000154B002B73
S113012008BF134B9D46A3F5803A00218B460F462A
S11301301348144A121A06F0B0FB0F4B002B00D0E0
S113014098470E4B002B00D0984700200021040054
S11301500D000D48002802D00C48AFF3008006F0D3
S11301606DFB2000290005F0B7FA06F053FB00BF31
S11301700000080000000220000000000000000051
S1130180F00100200C270020000000000000000007
S113019080B582B000AF03463960FB71FB79002B58
S11301A01FD0FB79012B19D0FB79022B13D0FB79DB
S11301B0032B0DD0FB79042B07D0FB79052B02D13F
S11301C041F6FF730FE000230DE04FF6FF730AE0E2
S11301D04FF6FF7307E04FF6FF7304E04FF6FF732B
S11301E001E04FF6FF733A68134103F00103002B5B
S11301F004D140F20B410A4802F0D8FB01223B68CB
S113020002FA03F30749FA7918461346DB0013444C
S11302109B000B441033186000BF0837BD4680BDF7
S1130220FC9000000060004080B582B000AF012166
S1130230104802F0FDFF01210F4802F0F9FF0023EE
S11302407B600FE00D4A7B6812F833000B4A7B6831
S1130250DB00134459680023042203F007FF7B6882
S113026001337B607B68012BECDD002318460837E3
S1130270BD4680BD4081040000D2040060910000AE
S113028080B582B000AF78607B68002B10DB7B68A0
S1130290012B0DDC094A7B6812F83300074A7B689E
S11302A0DB0013445B681946FFF772FF002301E08B
S11302B04FF0FF3318460837BD4680BD60910000FB
S11302C080B582B000AF3A4B5B6C394A43F40053BB
S11302D05364384BD3F82031364A43F00403C2F850
S11302E02031344BD3F82031324A23F44073C2F81E
S11302F02031304BD3F8B8302E4A23F47063C2F85F
S1130300B8302C4BD3F8B8302A4A43F48063C2F88F
S1130310B830274B10221A6200BF254BDB6A03F06A
S11303202003002BF9D0244B1B68234A43F001031C
S11303301360214BDB68204A43F08073D3601F4B6A
S11303401F4A1A601F4802F0E1FF034603F5D52354
S113035003F2FC437B607B68DB081B4AA2FB03239C
S11303609B0A3B60194A3B68013B1361174B02220D
S1130370C3F8F020154B4FF48072C3F804234FF0F8
S11303806043134AC3F8B02F4FF06043114AC3F8D7
S1130390802E4FF06043D3F8003E4FF0604243F0AC
S11303A00103C2F8003E012318460837BD4680BD4C
S11303B000800C4000600040F0ED00E0001000E020
S11303C0FF13014006000E0017916502000004E0CF
S11303D055CEACC509000100064880470649074AC6
S11303E0074B9A42BEBF51F8040B42F8040BF8E7DE
S11303F0FFF794FE7D0500003C98000000000020FB
S1130400F0010020FEE700BF80B400AF034BDB6CBB
S11304101B0EDBB21846BD4680BC7047B081E00FAE
S113042080B582B000AF00F01FF87860074B5B68BE
S113043003F00F037A6822FA03F37B60044A7B68B3
S113044013607B6818460837BD4680BD00800C40A9
S11304500800002080B400AF024B1846BD4680BCA3
S1130460704700BF006CDC0280B582B000AF334B34
S1130470DB6A03F47053B3F5805F0AD0B3F5005F11
S113048003D0B3F5006F08D00BE02D4B1B687B60E5
S113049047E04FF400437B6043E02A4B1B687B60DA
S11304A03FE0264BDB6803F4E063B3F5007F1BD029
S11304B0B3F5007F05D8002B24D0B3F5807F16D088
S11304C02BE0B3F5806F09D0B3F5A06F03D0B3F57B
S11304D0407F06D021E01C4B7B6021E01B4B7B60FE
S11304E01EE01B4B7B601BE01A4B7B6018E0FFF7A0
S11304F08BFF0346122B02D9174B7B6010E0174B7E
S11305007B600DE0FFF780FF0346122B02D9144BEA
S11305107B6005E0134B7B6002E000237B6000BF3F
S113052000BF064B1B689B0B03F0070301337A687B
S1130530B2FBF3F318460837BD4680BD00800C407B
S11305400400002000000020003FAB01406F400188
S1130550809FD500C0D8A70040B56400C0CF6A0012
S1130560804F120040420F0080B400AF024B1B6862
S11305701846BD4680BC70470000002080B400AF20
S1130580034B044A9A6000BFBD4680BC704700BF5D
S113059000ED00E00000000080B400AF4FF4004321
S11305A01846BD4680BC704780B400AF4FF47A73E0
S11305B01846BD4680BC704780B400AF024B1B6830
S11305C01846BD4680BC70470400002080B400AFCC
S11305D0054B1B69044A23F00403136130BF00BFB9
S11305E0BD4680BC704700BF00ED00E080B582B01E
S11305F000AF0346FB71074B1B68002B04D0054B6F
S11306001B68FA7910469847012318460837BD46F7
S113061080BD00BF1802002080B582B000AF7860B2
S11306203960124A7B681360114B124A1A60104AEF
S11306303B685360104B00221A700F4B00225A7013
S113064004F080FA034603F48073002B09D004F00D
S11306504FFA074B5B68002B03D0054B5B68042003
S1130660984700BF0837BD4680BD00BF1802002070
S11306700C020020ED0500001C02002080B584B0AF
S113068000AF0023FB730023BB6003F0B9F978606B
S113069000F03CF80346FB70FB78022B02D0FB7899
S11306A0032B01D103F04EFB00F030F80346FB703E
S11306B0FB78002B08D0FB78032B05D8FB78184671
S11306C000F042F80346FB730F4B9B68002B05D0E8
S11306D00D4B9B68FA7B10469847B860BB6803F0E3
S11306E00103002BE0D1FB7B022B02D0FB7B032B0D
S11306F001D103F02EFB786803F091F9FB7B1846D7
S11307001037BD4680BD00BF0C02002080B483B00A
S113071000AF0123FB710B4B1B78002B07D1022385
S1130720FB71084B5B78002B01D10323FB71FB7930
S1130730032B01D90323FB71FB7918460C37BD4603
S113074080BC70471C02002080B584B000AF034613
S1130750FB710123FB73FB79002B02D0FB79042B83
S113076004D94FF4CB71214802F020F9204B1B68C7
S1130770002B06D01E4B1B68FA7910469847034697
S1130780FB73FB7B83F00103DBB2002B01D000235E
S113079027E0FB79013B032B18D801A252F823F080
S11307A0B1070000B7070000BF070000C70700003B
S11307B0FFF70CFF0BE0002003F010FA07E0002025
S11307C003F05CFA03E003F0CBFA00E000BF084B4F
S11307D05B68002B04D0064B5B68FA791046984797
S11307E0FB7918461037BD4680BD00BF70910000EC
S11307F00C02002080B584B000AF78600023FB6059
S11308007B6803F00703002B04D07B6823F0070305
S113081008337B6001F0E4F8164B1B68002B05D10C
S1130820154B23F007031A46124B1A60134B1A6830
S11308307B68134442F21F32934213D80F4B1A6859
S11308407B681A440D4B1B689A420BD9094B1A68F2
S11308500A4B1B681344FB60084B1A687B681344FB
S1130860064A136001F0CAF8FB6818461037BD4603
S113087080BD00BF4C250020280200204825002010
S113088080B582B000AF78607B68002B03D0B821BC
S1130890034802F08BF800BF0837BD4680BD00BF97
S11308A08491000080B483B000AF78607B6803F16A
S11308B008027B685A607B684FF0FF329A607B685D
S11308C003F108027B68DA607B6803F108027B6845
S11308D01A617B6800221A6000BF0C37BD4680BCD9
S11308E0704780B483B000AF78607B6800221A61DF
S11308F000BF0C37BD4680BC704780B485B000AFE4
S1130900786039607B685B68FB603B68FA685A60B2
S1130910FB689A683B689A60FB689B683A685A600F
S1130920FB683A689A603B687A681A617B681B685E
S11309305A1C7B681A6000BF1437BD4680BC7047E0
S113094080B485B000AF786039603B681B68BB60D9
S1130950BB68B3F1FF3F03D17B681B69FB600CE00C
S11309607B680833FB6002E0FB685B68FB60FB6844
S11309705B681B68BA689A42F6D2FB685A683B689F
S11309805A603B685B683A689A603B68FA689A60A8
S1130990FB683A685A603B687A681A617B681B682E
S11309A05A1C7B681A6000BF1437BD4680BC704770
S11309B080B485B000AF78607B681B69FB607B689E
S11309C05B687A6892689A607B689B687A68526808
S11309D05A60FB685B687A689A4203D17B689A68BC
S11309E0FB685A607B6800221A61FB681B685A1E08
S11309F0FB681A60FB681B6818461437BD4680BC48
S1130A007047000080B485B000AFF860B9607A60C8
S1130A10FB68043BFB60FB684FF080721A60FB6864
S1130A20043BFB60BB6823F00102FB681A60FB68AF
S1130A30043BFB60084AFB681A60FB68143BFB60DC
S1130A407A68FB681A60FB68203BFB60FB68184609
S1130A501437BD4680BC70475D0A000080B582B083
S1130A6000AF094B1B68B3F1FF3F03D0FF210748D8
S1130A7001F09CFF4FF0BF0383F31188BFF36F8F26
S1130A80BFF34F8F7B60FEE70C000020A4910000B1
S1130A90074B19680868B0E8F00F80F30988BFF3C2
S1130AA06F8F4FF0000080F311884EF00D0E7047E9
S1130AB05825002000BF00BF06480068006880F386
S1130AC0088862B661B6BFF34F8FBFF36F8F00DF44
S1130AD000BF00BF08ED00E080B584B000AF284B34
S1130AE0FB60FB681B78DBB2BB60FB68FF221A70FB
S1130AF0FB681B78DBB2FB71FB79DBB223F04003AC
S1130B00DAB2204B1A70204B07221A6009E01E4B00
S1130B101B68013B1C4A1360FB79DBB25B00DBB250
S1130B20FB71FB79DBB203F08003802BEFD0164B13
S1130B301B681B02144A1360134B1B6803F4E06325
S1130B40114A1360BB68DAB2FB681A700F4B1B685A
S1130B500E4A43F47F0313600C4B1B680B4A43F0AB
S1130B607F43136004F068FA094B00221A60FFF710
S1130B70A3FFFFF773FF002318461037BD4680BD5F
S1130B8000E400E0502500205425002020ED00E082
S1130B900C00002080B582B000AF4FF0BF0383F398
S1130BA01188BFF36F8FBFF34F8F7B600B4B1B68B4
S1130BB001330A4A1360094B1B68012B09D1084B06
S1130BC01B68DBB2002B04D04FF4C671054801F05A
S1130BD0EDFE00BF0837BD4680BD00BF0C000020FD
S1130BE004ED00E0A491000080B582B000AF0D4B8D
S1130BF01B68002B04D140F293110B4801F0D6FE80
S1130C00084B1B68013B074A1360064B1B68002B0B
S1130C1004D100237B607B6883F3118800BF08370D
S1130C20BD4680BD0C000020A4910000000000001F
S1130C30EFF30980BFF36F8F0D4B1A6820E9F00FB3
S1130C4010602DE908404FF0BF0080F3118801F0D7
S1130C5035F84FF0000080F31188BDE808401968AA
S1130C600868B0E8F00F80F30988BFF36F8F70470E
S1130C705825002000BF00BF80B582B000AF4FF000
S1130C80BF0383F31188BFF36F8FBFF34F8F7B6074
S1130C9000F05AFF0346002B03D0064B4FF080525E
S1130CA01A6000233B603B6883F3118800BF083758
S1130CB0BD4680BD04ED00E080B582B000AFEFF327
S1130CC005837B607B680F2B0ED9104A7B68134425
S1130CD01B78FB700E4B1B78FA789A4204D240F2D0
S1130CE0AB210C4801F062FE0B4B1B6803F4E0627D
S1130CF00A4B1B689A4204D940F2BB21054801F013
S1130D0055FE00BF0837BD4680BD00BFF0E300E0DC
S1130D1050250020A49100000CED00E05425002093
S1130D2080B584B000AF786039607B68FB60FB6895
S1130D30002B04D14FF49471294801F037FEFFF7DA
S1130D4029FFFB681A68FB68DB6BF968096C01FB17
S1130D5003F31A44FB685A60FB6800229A63FB6839
S1130D601A68FB689A60FB681A68FB68DB6B013BD6
S1130D70F968096C01FB03F31A44FB68DA60FB6849
S1130D80FF2283F84420FB68FF2283F845203B6858
S1130D90002B14D1FB681B69002B1AD0FB6810339D
S1130DA0184601F029F80346002B12D00D4B4FF0E2
S1130DB080521A60BFF34F8FBFF36F8F09E0FB6857
S1130DC010331846FFF76EFDFB6824331846FFF70F
S1130DD069FDFFF709FF012318461037BD4680BDA2
S1130DE0C491000004ED00E080B58AB002AFF86061
S1130DF0B9601346FB71FB68002B04D140F29511D6
S1130E00134801F0D3FDBB68002B02D10023FB6122
S1130E1004E0FB68BA6802FB03F3FB61FB69483337
S1130E201846FFF7E7FCB861BB69002B0BD0BB6920
S1130E3048337B61FA79BB69009313467A69B968D0
S1130E40F86800F007F8BB6918462037BD4680BD36
S1130E50C491000080B584B000AFF860B9607A60D6
S1130E60FB70BB68002B03D1BB69BA691A6002E04E
S1130E70BB697A681A60BB69FA68DA63BB69BA68E5
S1130E801A640121B869FFF74BFF00BF1037BD4654
S1130E9080BD000080B58AB000AFF860B9607A60A8
S1130EA03B6000237B62FB683B623B6A002B04D1FE
S1130EB040F2E621624801F079FDBB68002B08D1BD
S1130EC03B6A1B6C002B04D040F2E7215C4801F024
S1130ED06DFD3B68022B08D13B6ADB6B012B04D010
S1130EE04FF43A71564801F061FD01F01DF90346D3
S1130EF0002B07D17B68002B04D040F2EB21504833
S1130F0001F054FDFFF746FE3B6A9A6B3B6ADB6BCC
S1130F109A4202D33B68022B29D13A68B968386AED
S1130F2000F082FAF8613B6A5B6A002B10D03B6ADE
S1130F302433184600F060FF0346002B13D0414BC6
S1130F404FF080521A60BFF34F8FBFF36F8F0AE0E8
S1130F50FB69002B07D03B4B4FF080521A60BFF364
S1130F604F8FBFF36F8FFFF73FFE012363E07B6872
S1130F70002B03D1FFF738FE00235CE07B6A002BD3
S1130F8006D107F11403184600F094FF01237B6295
S1130F90FFF72AFE00F024FDFFF7FCFD3B6A93F8FF
S1130FA044305BB2B3F1FF3F03D13B6A002283F8C4
S1130FB044203B6A93F845305BB2B3F1FF3F03D161
S1130FC03B6A002283F84520FFF70EFE3A1D07F125
S1130FD014031146184600F08BFF0346002B24D15E
S1130FE0386A00F019FB0346002B18D03B6A103313
S1130FF07A681146184600F0B7FE386A00F0A4FA81
S113100000F0FCFC0346002B7FF47CAF0D4B4FF04B
S113101080521A60BFF34F8FBFF36F8F72E7386A45
S113102000F092FA00F0EAFC6CE7386A00F08CFAFF
S113103000F0E4FC002318462837BD4680BD00BFFD
S1131040C491000004ED00E080B58CB000AFF860FE
S1131050B9607A603B60FB68BB62BB6A002B04D159
S11310604FF46B71364801F0A1FCBB68002B08D12A
S1131070BB6A1B6C002B04D040F2AD31304801F048
S113108095FC3B68022B08D1BB6ADB6B012B04D0B7
S113109040F2AE312A4801F089FCFFF70DFEEFF370
S11310A011824FF0BF0383F31188BFF36F8FBFF337
S11310B04F8FFA61BB61FB697B62BB6A9A6BBB6A47
S11310C0DB6B9A4202D33B68022B2CD1BB6A93F8A8
S11310D0453087F823303A68B968B86A00F0A4F953
S11310E097F92330B3F1FF3F12D1BB6A5B6A002B3F
S11310F016D0BB6A2433184600F07EFE0346002B4C
S11311000ED07B68002B0BD07B6801221A6007E0AD
S113111097F823300133DBB25AB2BB6A83F8452017
S11311200123FB6201E00023FB627B6A7B617B6934
S113113083F31188FB6A18463037BD4680BD00BF73
S1131140C491000080B58AB000AF786039607B68D4
S11311503B623B6A002B04D140F24941334801F021
S113116025FC3B6A1B6C002B04D040F24D412F48F8
S113117001F01CFC3B6A1B68002B08D13B6A5B68CE
S1131180002B04D040F25241284801F00FFCFFF735
S113119093FDEFF311824FF0BF0383F31188BFF384
S11311A06F8FBFF34F8F3A61FB603B69FB613B6A12
S11311B09B6BBB613B6ADB6BBA699A4229D23B6A7F
S11311C093F84530FB75BB695A1C3B6A9A6397F9DF
S11311D01730B3F1FF3F12D13B6A5B6A002B15D085
S11311E03B6A2433184600F007FE0346002B0DD05B
S11311F03B68002B0AD03B6801221A6006E0FB7DA5
S11312000133DBB25AB23B6A83F8452001237B6287
S113121001E000237B62FB69BB60BB6883F3118838
S11312207B6A18462837BD4680BD00BFC4910000C4
S113123080B58AB000AFF860B9607A603B60002383
S11312407B62FB683B623B6A002B04D140F2E941BC
S1131250734801F0ABFBBB68002B08D13B6A1B6CE5
S1131260002B04D040F2EA416D4801F09FFB00F0EE
S11312705BFF0346002B07D17B68002B04D040F2B0
S1131280ED41674801F092FBFFF784FC3B6A9B6BDE
S1131290FB61FB69002B46D03B6ADB68BB61B96824
S11312A0386A00F02BF93B68002B21D1FB695A1EE8
S11312B03B6A9A633B6A1B68002B04D101F044F833
S11312C002463B6A5A603B6A1B69002B27D03B6A83
S11312D01033184600F090FD0346002B1FD0514BED
S11312E04FF080521A60BFF34F8FBFF36F8F16E039
S11312F03B6ABA69DA603B6A5B6A002B0FD03B6ACF
S11313002433184600F078FD0346002B07D0454BE4
S11313104FF080521A60BFF34F8FBFF36F8FFFF708
S113132063FC012377E07B68002B03D1FFF75CFCAF
S1131330002370E07B6A002B06D107F110031846E6
S113134000F0B8FD01237B62FFF74EFC00F048FB80
S1131350FFF720FC3B6A93F844305BB2B3F1FF3FE4
S113136003D13B6A002283F844203B6A93F845305A
S11313705BB2B3F1FF3F03D13B6A002283F84520FF
S1131380FFF732FC3A1D07F110031146184600F02E
S1131390AFFD0346002B31D1386A00F027F903462C
S11313A0002B25D03B6A1B68002B08D1FFF7F2FB0A
S11313B03B6A5B68184600F0D5FEFFF715FC3B6AF4
S11313C024337A681146184600F0CEFC386A00F0DF
S11313D0BBF800F013FB0346002B7FF455AF114B11
S11313E04FF080521A60BFF34F8FBFF36F8F4BE7FC
S11313F0386A00F0A9F800F001FB45E7386A00F00C
S1131400A3F800F0FBFA386A00F0F0F80346002B6A
S11314103FF43AAF002318462837BD4680BD00BFCD
S1131420C491000004ED00E080B586B000AFF86020
S1131430B9607A6000237B61FB689B6B3B61FB684E
S11314401B6C002B0DD1FB681B68002B4DD1FB6876
S11314505B68184600F0FCFE7861FB6800225A6065
S113146043E07B68002B19D1FB689868FB681B6C10
S11314701A46B96805F006FAFB689A68FB681B6CA3
S11314801A44FB689A60FB689A68FB685B689A4236
S11314902BD3FB681A68FB689A6026E0FB68D8685F
S11314A0FB681B6C1A46B96805F0ECF9FB68DA684E
S11314B0FB681B6C5B421A44FB68DA60FB68DA6801
S11314C0FB681B689A4207D2FB685A68FB681B6C6E
S11314D05B421A44FB68DA607B68022B05D13B69E6
S11314E0002B02D03B69013B3B613B695A1CFB6802
S11314F09A637B6918461837BD4680BD80B582B0B3
S113150000AF786039607B681B6C002B18D07B6857
S1131510DA687B681B6C1A447B68DA607B68DA687B
S11315207B685B689A4203D37B681A687B68DA60DD
S11315307B68D9687B681B6C1A46386805F0A2F989
S113154000BF0837BD4680BD80B584B000AF786069
S1131550FFF720FB7B6893F84530FB7311E07B6851
S11315605B6A002B12D07B682433184600F044FCDD
S11315700346002B01D000F011FDFB7B013BDBB2E5
S1131580FB7397F90F30002BE9DC00E000BF7B68A8
S1131590FF2283F84520FFF727FBFFF7FBFA7B6860
S11315A093F84430BB7311E07B681B69002B12D0A5
S11315B07B681033184600F01FFC0346002B01D053
S11315C000F0ECFCBB7B013BDBB2BB7397F90E3044
S11315D0002BE9DC00E000BF7B68FF2283F8442095
S11315E0FFF702FB00BF1037BD4680BD80B584B055
S11315F000AF7860FFF7CEFA7B689B6B002B02D1BB
S11316000123FB6001E00023FB60FFF7EDFAFB68B8
S113161018461037BD4680BD80B584B000AF7860F1
S1131620FFF7B8FA7B689A6B7B68DB6B9A4202D14E
S11316300123FB6001E00023FB60FFF7D5FAFB68A0
S113164018461037BD4680BD80B485B000AF7860C1
S113165039600023FB6014E00E4AFB6852F8333013
S1131660002B0BD10B49FB683A6841F83320094A37
S1131670FB68DB0013447A685A6005E0FB680133B9
S1131680FB60FB68092BE7D900BF1437BD4680BC5B
S1131690704700BFA026002080B586B000AFF86078
S11316A0B9607A60FB687B61FFF774FA7B6993F831
S11316B044305BB2B3F1FF3F03D17B69002283F86E
S11316C044207B6993F845305BB2B3F1FF3F03D10B
S11316D07B69002283F84520FFF786FA7B699B6BC0
S11316E0002B06D17B6924337A68B968184600F068
S11316F05BFB7869FFF728FF00BF1837BD4680BD44
S113170080B58CB004AFF860B9603B601346FB80D1
S1131710FB889B001846FFF76DF878617B69002B06
S11317200ED05020FFF766F8F861FB69002B03D058
S1131730FB697A691A6305E07869FFF7A1F801E0AB
S11317400023FB61FB69002B13D0FA880023039369
S1131750FB690293FB6A0193BB6A00933B68B96817
S1131760F86800F00FF8F86900F088F80123BB610D
S113177002E04FF0FF33BB61BB6918462037BD461A
S113178080BD000080B586B000AFF860B9607A60B3
S11317903B60BB6A1A6B7B6803F18043013B9B008F
S11317A013443B613B6923F007033B613B6903F04E
S11317B00703002B04D04FF44E712F4801F0F6F8C4
S11317C000237B6112E0BA687B6913441978BA6A12
S11317D07B69134434330A461A70BA687B6913442C
S11317E01B78002B06D07B6901337B617B69092B55
S11317F0E9D900E000BFBB6A002283F83D203B6AC0
S1131800022B01D902233B62BB6A3A6ADA62BB6AE1
S11318103A6A1A64BB6A00225A64BB6A04331846E3
S1131820FFF75FF8BB6A18331846FFF75AF8BB6A2C
S1131830BA6A1A613B6AC3F10302BB6A9A61BB6A62
S1131840BA6A5A62BB6A00229A64BB6A002283F8AD
S11318504C203A68F9683869FFF7D4F80246BB6A45
S11318601A607B6A002B02D07B6ABA6A1A6000BFD6
S11318701837BD4680BD00BFE091000080B582B03E
S113188000AF7860FFF786F92A4B1B680133294AB9
S11318901360294B1B68002B09D1274A7B6813600E
S11318A0244B1B68012B10D100F08EFB0DE0234B61
S11318B01B68002B09D1204B1B68DA6A7B68DB6A42
S11318C09A4202D81C4A7B6813601D4B1B68013383
S11318D01B4A13607B68DB6A01229A40194B1B6820
S11318E01343184A13607B68DA6A13469B00134457
S11318F09B00154A1A447B68043319461046FEF7C8
S1131900FCFFFFF771F90D4B1B68002B0ED00A4B3F
S11319101B68DA6A7B68DB6A9A4207D20B4B4FF08A
S113192080521A60BFF34F8FBFF36F8F00BF083729
S1131930BD4680BD0826002058250020142600201E
S113194024260020102600205C25002004ED00E061
S113195080B584B002AF1B4B019300230093002396
S11319608C2219491948FFF7CBFE78607B68012B5C
S113197002D100F063FD78607B68012B15D14FF034
S1131980BF0383F31188BFF36F8FBFF34F8F3B60A7
S11319900F4B4FF0FF321A600E4B01221A600E4BB0
S11319A000221A60FFF798F808E07B68B3F1FF3F64
S11319B004D140F29171094800F0F8FF00BF0837E4
S11319C0BD4680BD2C260020FC910000B51F000000
S11319D028260020142600200C260020E091000078
S11319E080B400AF044B1B680133034A136000BF8B
S11319F0BD4680BC704700BF3026002080B584B04F
S1131A0000AF0023FB600023BB603E4B1B68002B30
S1131A1004D140F2F5713C4800F0C8FFFFF7BAF872
S1131A20384B1B68013B374A1360364B1B68002B4D
S1131A3061D1364B1B68002B5DD02EE0344BDB6844
S1131A40DB68FB60FB6818331846FEF7B1FFFB68E0
S1131A5004331846FEF7ACFFFB68DB6A01229A40A8
S1131A602C4B1B6813432B4A1360FB68DA6A13463A
S1131A709B0013449B00284A1A44FB68043319460C
S1131A801046FEF73AFFFB68DA6A244B1B68DB6AF0
S1131A909A4202D3224B01221A601D4B1B68002B71
S1131AA0CCD1FB68002B01D000F01AFB1D4B1B6846
S1131AB07B607B68002B10D000F046F80346002BB7
S1131AC002D0174B01221A607B68013B7B607B6864
S1131AD0002BF1D1134B00221A60114B1B68002B11
S1131AE009D00123BB60104B4FF080521A60BFF342
S1131AF04F8FBFF36F8FFFF777F8BB681846103727
S1131B00BD4680BD30260020E0910000082600205C
S1131B10C8250020102600205C2500205825002020
S1131B201C2600201826002004ED00E080B483B0B9
S1131B3000AF044B1B687B607B6818460C37BD46BE
S1131B4080BC70470C26002080B586B000AF00230F
S1131B507B614E4B1B68002B40F087804C4B1B680D
S1131B6001333B614A4A3B6913603B69002B1AD13C
S1131B70484B1B681B68002B04D040F6E61146480E
S1131B8000F014FF434B1B68FB60444B1B68414A45
S1131B901360424AFB681360414B1B680133404A9F
S1131BA0136000F09DFA3F4B1B683A699A424DD38B
S1131BB0384B1B681B68002B01D1012300E0002374
S1131BC0002B04D0374B4FF0FF321A603EE0314B0C
S1131BD01B68DB68DB68BB60BB685B687B603A6979
S1131BE07B689A4203D22F4A7B6813602EE0BB685D
S1131BF004331846FEF7DCFEBB689B6A002B04D056
S1131C00BB6818331846FEF7D3FEBB68DB6A0122B3
S1131C109A40254B1B681343234A1360BB68DA6A56
S1131C2013469B0013449B00204A1A44BB680433A8
S1131C3019461046FEF761FEBB68DA6A1C4B1B6846
S1131C40DB6A9A42B4D301237B61B1E7184B1B686A
S1131C50DA6A164913469B0013449B000B441B6825
S1131C60012B07D901237B6104E0124B1B6801336C
S1131C70104A1360104B1B68002B01D001237B61B9
S1131C807B6918461837BD4680BD00BF302600204A
S1131C900C260020C0250020E0910000C42500206F
S1131CA02026002028260020102600205C25002065
S1131CB058250020182600201C26002080B584B05A
S1131CC000AF234B1B68002B03D0224B01221A6068
S1131CD039E0204B00221A601F4B1B687B607B6835
S1131CE0B3FA83F3FB70FB78C3F11F03FB601B495A
S1131CF0FA6813469B0013449B000B441B68002B9B
S1131D0004D140F60331164800F050FEFA68134639
S1131D109B0013449B00114A1344BB60BB685B687F
S1131D205A68BB685A60BB685A68BB6808339A42F1
S1131D3004D1BB685B685A68BB685A60BB685B685F
S1131D40DB68084A136000BF1037BD4680BD00BF82
S1131D50302600201C260020102600205C250020B0
S1131D60E09100005825002080B582B000AF786073
S1131D7039607B68002B04D140F61331084800F029
S1131D8015FE084B1B68183319467868FEF7D8FD12
S1131D900121386800F0ECFA00BF0837BD4680BD69
S1131DA0E09100005825002080B584B000AFF860B1
S1131DB0B9607A60FB68002B04D140F63E310C48D0
S1131DC000F0F4FD0B4B1B6818331946F868FEF756
S1131DD094FD7B68002B02D04FF0FF33BB60796821
S1131DE0B86800F0C5FA00BF1037BD4680BD00BF1B
S1131DF0E09100005825002080B584B000AF7860E1
S1131E007B68DB68DB68BB60BB68002B04D140F6F1
S1131E106E31214800F0CAFDBB6818331846FEF73E
S1131E20C7FD1E4B1B68002B1CD1BB68043318462E
S1131E30FEF7BEFDBB68DB6A01229A40184B1B68A3
S1131E401343174A1360BB68DA6A13469B001344B2
S1131E509B00144A1A44BB68043319461046FEF723
S1131E604CFD05E0BB68183319460F48FEF745FDE5
S1131E70BB68DA6A0D4B1B68DB6A9A4205D90123F9
S1131E80FB600B4B01221A6001E00023FB60FB683E
S1131E9018461037BD4680BDE09100003026002072
S1131EA0102600205C250020C8250020582500208D
S1131EB01C26002080B582B000AF78607B68002BC0
S1131EC004D140F6CE31074800F070FD064B1A6885
S1131ED07B681A60054B1A687B685A6000BF083734
S1131EE0BD4680BDE0910000202600200C26002085
S1131EF080B584B000AF786039607B68002B04D172
S1131F0040F6D831224800F051FD3B68002B04D143
S1131F1040F6D9311E4800F049FDFEF73BFE1D4B4B
S1131F201B68BB603B681B68B3F1FF3F02D1002311
S1131F30FB6026E07B681A68174B1B689A4207D03F
S1131F407B685B68BA689A4202D30123FB6018E09D
S1131F507B685B68BA68D21A3B681B689A420ED2E7
S1131F603B681A687B685968BB68CB1A1A443B689B
S1131F701A607868FFF79EFF0023FB6001E00123ED
S1131F80FB60FEF731FEFB6818461037BD4680BD86
S1131F90E09100000C2600202026002080B400AF31
S1131FA0034B01221A6000BFBD4680BC704700BFCE
S1131FB01C26002080B582B000AF786000F044F8A1
S1131FC002F0F6FFFAE7000080B582B000AF00230C
S1131FD07B600CE07A6813469B0013449B00124A12
S1131FE013441846FEF75EFC7B6801337B607B6814
S1131FF0022BEFD90D48FEF755FC0D48FEF752FCB5
S11320000C48FEF74FFC0C48FEF74CFC0B48FEF75F
S113201049FC0B4B054A1A600A4B054A1A6000BF7B
S11320200837BD4680BD00BF5C25002098250020F0
S1132030AC250020C8250020DC250020F425002044
S1132040C0250020C425002080B582B000AF28E060
S1132050FFF7C6FC174B1B68002B0CBF01230023A2
S1132060DBB27B60FFF7CAFC7B68002B19D1FEF75B
S113207091FD104BDB68DB683B603B68043318461A
S1132080FEF796FC0C4B1B68013B0B4A13600B4B91
S11320901B68013B094A1360FEF7A6FD386800F08F
S11320A00FF8064B1B68002BD2D100BF0837BD4682
S11320B080BD00BFDC25002008260020F02500207C
S11320C080B582B000AF78607B681B6B1846FEF762
S11320D0D7FB7868FEF7D4FB00BF0837BD4680BD48
S11320E080B483B000AF0E4B1B681B68002B01D17A
S11320F0012300E00023002B04D00A4B4FF0FF32F1
S11321001A6008E0064B1B68DB68DB687B607B6851
S11321105B68044A136000BF0C37BD4680BC70473F
S1132120C02500202826002080B483B000AF0B4BCC
S11321301B68002B02D101237B6008E0084B1B685D
S1132140002B02D102237B6001E000237B607B68CB
S113215018460C37BD4680BC704700BF14260020CB
S11321603026002080B584B000AF78607B68FB60C7
S11321707B68002B62D0FB68DA6A324B1B68DB6A2F
S11321809A425BD2FB689B69002B06DB2D4B1B68D4
S1132190DB6AC3F10302FB689A61FB685969FB6857
S11321A0DA6A13469B0013449B00274A134499425E
S11321B001D1012300E00023002B3AD0FB68043353
S11321C01846FEF7F5FB0346002B15D1FB68DA6AC7
S11321D01D4913469B0013449B000B441B68002BB2
S11321E00AD1FB68DB6A012202FA03F3DA43174BD4
S11321F01B681340154A1360124B1B68DA6AFB68AC
S1132200DA62FB68DB6A01229A40104B1B681343B5
S11322100E4A1360FB68DA6A13469B0013449B0062
S1132220094A1A44FB68043319461046FEF765FB55
S113223004E0044B1B68DA6AFB68DA6200BF1037FB
S1132240BD4680BD582500205C25002010260020B6
S113225080B584B000AF78607B68BB600023FB600E
S11322607B68002B62D0344B1B68BA689A4204D056
S113227040F6D461314800F099FBBB685B6C002BDD
S113228004D140F6D6612D4800F090FBBB685B6C2E
S11322905A1EBB685A64BB68DA6ABB681B6C9A42F4
S11322A044D0BB685B6C002B40D1BB680433184638
S11322B0FEF77EFB0346002B15D1BB68DA6A204982
S11322C013469B0013449B000B441B68002B0AD14C
S11322D0BB68DB6A012202FA03F3DA43194B1B6879
S11322E01340184A1360BB681A6CBB68DA62BB6897
S11322F0DB6AC3F10302BB689A61BB68DB6A012233
S11323009A40104B1B6813430E4A1360BB68DA6A89
S113231013469B0013449B00094A1A44BB680433C8
S113232019461046FEF7E9FA0123FB60FB681846DC
S11323301037BD4680BD00BF58250020E091000045
S11323405C2500201026002080B400AF074B1B68DA
S1132350002B04D0054B1B685A6C01325A64034BA2
S11323601B681846BD4680BC704700BF5825002036
S113237080B584B000AF78603960294B1B68FB607E
S1132380284B1B6804331846FEF712FB0346002B48
S11323900BD1244B1B68DB6A012202FA03F3DA43F4
S11323A0214B1B681340204A13607B68B3F1FF3F45
S11323B00AD13B68002B07D01A4B1B68043319461B
S11323C01A48FEF79AFA26E0FA687B681344BB6061
S11323D0144B1B68BA685A60BA68FB689A4209D2FF
S11323E0134B1A680F4B1B68043319461046FEF74B
S11323F0A7FA10E00F4B1A680A4B1B6804331946FE
S11324001046FEF79DFA0C4B1B68BA689A4202D23A
S1132410094ABB68136000BF1037BD4680BD00BFCA
S11324200C2600205825002010260020F42500202A
S1132430C4250020C02500202826002080B584B0B3
S113244002AF00237B6000F07BFA0E4B1B68002B6D
S11324500AD00D4B01930223009300238C220B49D5
S11324600B48FFF74DF978607B68002B04D14FF4DB
S1132470A071084800F09AFA7B6818460837BD46F0
S113248080BD00BF6426002068260020049200005E
S1132490A52500000C92000080B588B000AFF8605C
S11324A0B9607A603B600023FB61FB68002B04D1B8
S11324B040F2B3111B4800F079FA1B4B1B68002B48
S11324C02AD0BB683B617B687B61FB68BB61BB68EE
S11324D0052B18DCFFF728FE0346022B09D1124B0B
S11324E0186807F110010023BA6AFEF7D3FCF861FB
S11324F012E00D4B186807F1100100230022FEF7CB
S1132500C9FCF86108E0084B186807F110010023C2
S11325103A68FEF799FDF861FB6918462037BD4615
S113252080BD00BF0C9200006426002080B586B0F8
S113253002AF78603960194B1B68DB68DB68FB60AD
S1132540FB6804331846FEF733FAFB68DB69012B9A
S11325501CD1FB689A697B68D1187B683A68F86873
S113256000F0C4F80346002B10D00023009300238E
S11325707A680021F868FFF78FFFB860BB68002B0A
S113258004D140F21521064800F010FAFB685B6A9A
S1132590F868984700BF1037BD4680BD5C26002010
S11325A00C92000080B584B000AF786007F1080396
S11325B0184600F057F8F860BB681946F86800F050
S11325C003F800F0D5F8F1E780B584B000AF786087
S11325D03960FFF705FA07F10803184600F066F8BA
S11325E0F860BB68002B30D13B68002B0AD17A68B5
S11325F0FB689A4206D8FFF701FAF9687868FFF792
S113260095FF24E03B68002B08D0134B1B681B6824
S1132610002B0CBF01230023DBB23B600F4B186877
S11326207A68FB68D31A3A681946FFF735F8FFF75A
S1132630E5F90346002B0AD1094B4FF080521A608A
S1132640BFF34F8FBFF36F8F01E0FFF7D7F900BFE0
S11326501037BD4680BD00BF6026002064260020E0
S113266004ED00E080B485B000AF78600E4B1B68C9
S11326701B68002B0CBF01230023DBB21A467B68C6
S11326801A607B681B68002B05D1074B1B68DB684D
S11326901B68FB6001E00023FB60FB6818461437ED
S11326A0BD4680BC704700BF5C26002080B584B066
S11326B000AF7860FFF73AFAF8600B4B1B68FA68D2
S11326C09A4205D200F0DEF87B6801221A6002E02B
S11326D07B6800221A60044AFB681360FB68184692
S11326E01037BD4680BD00BF6C26002080B586B083
S11326F000AFF860B9607A603B6000237B61FB68DF
S1132700BA685A60FB68FA681A61BA687B689A42C8
S113271012D87A683B68D21AFB689B699A4202D342
S113272001237B611BE0104B1A68FB6804331946D4
S11327301046FEF705F912E07A683B689A4206D221
S1132740BA683B689A4202D301237B6107E0074BD6
S11327501A68FB68043319461046FEF7F1F87B69E2
S113276018461837BD4680BD602600205C26002030
S113277080B58AB002AF71E0BB68002B6DDB3B69AA
S1132780FB61FB695B69002B04D0FB6904331846C9
S1132790FEF70EF93B1D1846FFF788FFB861BB68CA
S11327A0092B5BD801A252F823F000BFD527000003
S11327B0D5270000D52700005D2800002728000049
S11327C053280000D5270000D52700005D2800000D
S11327D027280000FA68FB699B69D118FB68BA696D
S11327E0F869FFF783FF0346002B37D0FB695B6A68
S11327F0F8699847FB69DB69012B2FD1FA68FB69FB
S11328009B691A440023009300230021F869FFF711
S113281043FE78617B69002B20D140F22E311748AA
S113282000F0C4F81AE0FA68FB699A61FB699B69D5
S1132830002B04D140F24531104800F0B7F8FB6991
S11328409A69BB69D118BB69BA69F869FFF74EFF89
S113285004E0F869FEF714F800E000BF084B1868BC
S113286007F1080100230022FEF7E2FC0346002BD7
S113287082D100BF2037BD4680BD00BF0C9200004E
S11328806426002080B588B002AF3FE0294B1B6866
S1132890DB681B683B61274B1B68DB68DB68FB60FC
S11328A0FB6804331846FEF783F8FB685B6AF86834
S11328B09847FB68DB69012B28D1FB689B693A695F
S11328C01344BB60BA683B699A420ED9FB68BA6884
S11328D05A60FB68FA681A61164B1A68FB6804337D
S11328E019461046FEF72CF810E00023009300234D
S11328F03A690021F868FFF7CFFD78607B68002B08
S113290004D140F29F310C4800F050F8094B1B6889
S11329101B68002BBAD1074B1B687B61074B1B68F4
S1132920044A1360054A7B69136000BF1837BD462B
S113293080BD00BF5C2600200C92000060260020B1
S113294080B500AFFEF726F9124B1B68002B1DD192
S11329501148FDF7A7FF1148FDF7A4FF104B0E4ADD
S11329601A60104B0D4A1A6000220C210A20FEF74F
S11329703BFA0246074B1A60064B1B68002B05D036
S1132980044B1B6808491846FEF75EFEFEF72CF957
S113299000BF80BD64260020342600204826002085
S11329A05C260020602600202C92000080B483B0B6
S11329B000AF78603960FEE780B487B000AFF8609C
S11329C0B9607A60FB6803F10473DA00BB681344EE
S11329D09B007B617B697A681A6000BF1C37BD4627
S11329E080BC704780B483B000AF7860034A7B68D2
S11329F0136300BF0C37BD4680BC7047001008400D
S1132A0080B582B000AF0346FB71FB791A46002102
S1132A100348FFF7D1FF00BF0837BD4680BD00BFA4
S1132A203810084080B584B000AF78607B68002B14
S1132A3003D07B68B3F5004F03D946210748FFF75D
S1132A40B5FF7B68B3FA83F3DBB2C3F11F03FB600A
S1132A50FB6818461037BD4680BD00BF34920000A5
S1132A6080B483B000AF78600F4B9B6B03F001031D
S1132A70002B13D10C4B1B6803F44053002B0DD0D7
S1132A80094B1B6803F00803082B07D000BF064B53
S1132A90DA6B7B681340002BF9D100E000BF0C37E0
S1132AA0BD4680BC704700BF0010084080B584B0AC
S1132AB000AF78607B68002B03D187213F48FFF784
S1132AC075FF7B689B68002B03D07B689B68802B19
S1132AD003D989213948FFF769FF7B68DB68062B36
S1132AE003D98D213548FFF761FF7B681B78002BE4
S1132AF00BD07B681B78012B03D17B685B78002BA0
S1132B0003D191212D48FFF751FF7B689B88B3F5D2
S1132B10405F0CD17B689B88B3F5405F03D17B6831
S1132B209B7C002B03D095212448FFF73FFF7B6853
S1132B309B681846FFF776FFF8607B681B78002BCC
S1132B4002D00120FFF75CFF0120FFF789FF7B68BB
S1132B509A7C1B4B5A607B685B7843F00803DBB2BA
S1132B601A467B689B789B0013437A68527C120157
S1132B701A437B68DB685B011A43FB681B0213433F
S1132B807A68928813437A68127C92031343BB6079
S1132B904FF0FF30FFF726FF094ABB6813607B68DC
S1132BA01B78002B05D0012000F00CF80020FFF763
S1132BB027FF00BF1037BD4680BD00BF3492000020
S1132BC00010084080B582B000AF0346FB71FB796A
S1132BD0012B05D10D4B1B6803F00303002B07D118
S1132BE0FB79002B04D04FF481710948FFF7DEFE16
S1132BF0FB7983F00103DBB21A4603210348FFF794
S1132C00DBFE00BF0837BD4680BD00BF0010084092
S1132C103492000080B582B000AF786039607B6880
S1132C20002B04D04FF489710648FFF7BFFE022041
S1132C30FFF716FF044A3B68D36000BF0837BD4660
S1132C4080BD00BF349200000010084080B582B0FF
S1132C5000AF78607B68002B04D04FF4987104486F
S1132C60FFF7A4FE034BDB6818460837BD4680BD5A
S1132C70349200000010084080B500AF0122032107
S1132C800448FFF799FE002203210248FFF794FE4F
S1132C9000BF80BD0010084080B487B000AFF8606A
S1132CA0B9607A60FB6803F10473DA00BB6813440B
S1132CB09B007B617B697A681A6000BF1C37BD4644
S1132CC080BC704780B485B000AF786039607B68A1
S1132CD003F10473DA003B6813449B00FB60FB6858
S1132CE01B6818461437BD4680BC704780B584B055
S1132CF000AF78607B68002B03D07B68B3F5004F8E
S1132D0004D940F6A9210748FFF750FE7B68B3FABF
S1132D1083F3DBB2C3F11F03FB60FB681846103773
S1132D20BD4680BDB092000080B400AF034BDB6CA5
S1132D301B0EDBB21846BD4680BC7047B081E00F65
S1132D4080B400AF034BDB6C1B0CDBB21846BD46F2
S1132D5080BC7047B081E00F80B582B000AFFFF750
S1132D60EFFF03464A2B04D0792B02D0482B23D003
S1132D7024E0174B1B699BB21B029BB203F47C53E8
S1132D80FB80134B9B691B091B0103F0F0039AB2F0
S1132D90FB881343FB800E4BDB691B0903F00F0315
S1132DA09AB2FB881343FB80FB88B3F5017F01D300
S1132DB0084B09E0084B07E0074B05E040F6594192
S1132DC00648FFF7F3FD002318460837BD4680BDCB
S1132DD0D0FF0FE000366E010048E80114930000B4
S1132DE080B584B000AF78600123FB60FFF7B4FFC7
S1132DF002467B68934204D80023FB600023BB6037
S1132E000BE0FFF7A9FF03465B007A689A4202D8F9
S1132E100123BB6001E00223BB60FA681E2108485D
S1132E20FFF73AFF064B5B6823F48072BB681B0212
S1132E30034913434B6000BF1037BD4680BD00BF3C
S1132E4000800C4080B582B000AF1E210448FFF71B
S1132E5039FF78607B6818460837BD4680BD00BFDF
S1132E6000800C4080B582B000AF244B5B6903F452
S1132E70E063B3F5007F1CD0B3F5007F05D8002BC9
S1132E8025D0B3F5807F1FD02AE0B3F5C06F24D0DE
S1132E90B3F5E06F1ED0B3F5407F21D1FFF744FFB7
S1132EA00346122B02D9164B7B6021E0154B7B6045
S1132EB01EE0FFF739FF0346122B02D9124B7B6049
S1132EC016E0124B7B6013E0114B7B6010E0114B5A
S1132ED07B600DE0104B7B600AE0104B7B6007E0E9
S1132EE000237B6040F6D8410D48FFF75FFD00BF2B
S1132EF07B6818460837BD4680BD00BF00800C4083
S1132F00804F120040420F0040B56400C0CF6A00F9
S1132F10C0D8A700809FD500406F4001003FAB019F
S1132F201493000080B582B000AF0F4800F0E0FABF
S1132F300346FB70FB78072B05D0092B07D1FDF75F
S1132F4093FA78600BE0FFF78DFF786007E00023C9
S1132F507B6040F612510548FFF728FD00BF7B68EF
S1132F6018460837BD4680BD06000E0014930000C5
S1132F7080B485B000AF78603960204B5B6803F0A3
S1132F800703FB60FB68012B01D9042B02D100234A
S1132F90FB7202E00123FB7200BF7B68184A934274
S1132FA007D9FB7A002B01D0052300E00423FB6042
S1132FB016E07B68124A93420BD87B68114A93420D
S1132FC007D9FB7A002B01D0032300E00123FB6027
S1132FD006E0FB7A002B01D0022300E00023FB6013
S1132FE0064B5B6823F007020449FB6813434B60FC
S1132FF000BF1437BD4680BC704700BF00000C40C2
S11330000048E8010024F40080B582B000AF0E4B04
S1133010DB6B002B14BF01230023FB710A4B41F629
S11330207132DA63FDF716FA034600211846FFF7FA
S11330309FFFFB79002B02D0034B0022DA6300BF11
S11330400837BD4680BD00BF00000C4080B584B089
S113305000AF786039600C4BDB6B002B14BF01238D
S11330600023FB73084B41F67132DA6339687868E0
S1133070FFF77EFFFB7B002B02D0034B0022DA63B9
S113308000BF1037BD4680BD00000C4090B585B030
S113309000AF78600023BB607B683B4A934208D052
S11330A03A4A934205D04FF475613948FFF77EFCE4
S11330B000E000BF786800F01BFA0346FB607B6801
S11330C0314A934203D0314A934206D00CE0314B4B
S11330D09B6A03F00303FB600CE02E4B9B6A9B0886
S11330E003F00303FB6005E040F67F712848FFF717
S11330F05DFC00BFFB68032B38D801A252F823F013
S11331003731000011310000193100002131000075
S1133110FDF742FAB86032E0FDF74EFAB8602EE0EF
S1133120FDF77EF90446FFF78DFE0346013324FACA
S113313003F3BB6023E00023BB607B68124A934225
S113314003D07B68114A934218D1124B9A6A7B6868
S11331500D498B4201D1102300E0142322FA03F31A
S1133160002B0BD0FDF720FAB86007E00023BB600A
S113317040F6AA710648FFF719FC00E000BFBB68DF
S113318018461437BD4690BD02001E0003002000FF
S11331901493000000800C4080B483B000AF7860CA
S11331A0094B5B6D03F00103002B07D100BF064BF5
S11331B01A6D7B681340002BF9D100E000BF0C3777
S11331C0BD4680BC704700BF00800C4080B582B013
S11331D000AF104800F08CF90346FB70FB78032B1A
S11331E007D0092B09D0022B0BD1FDF7E5F9786044
S11331F00AE0FDF7D1F9786006E0FDF735F978606B
S113320002E000237B6000BF7B6818460837BD4698
S113321080BD00BF0723260080B400AF00BFBD46B9
S113322080BC704780B400AF00BFBD4680BC70470F
S113323080B586B000AF78600B46FB7000233B611D
S11332407B681B0A03F00F03013B092B33D801A24F
S113325052F823F091320000973200007D320000D2
S1133260B7320000B73200009D320000A7320000E0
S1133270B7320000B7320000B13200001B4B7B6153
S11332801B4800F043F803461846FFF7A9FD18E071
S1133290184B7B6115E0184B7B6112E0174B7B6187
S11332A001233B610DE0164B7B6110233B6108E079
S11332B0144B7B6105E041F2DB311348FFF776FBE9
S11332C010E07B681B0B03F01F03FB603B69002BC2
S11332D002D03869FFF760FFFB781A46F96878690D
S11332E0FFF7DAFC1837BD4680BD00BF40800C40B4
S11332F00043020008800C4044800C4058800C407D
S113330060800C4078800C401493000090B585B028
S113331000AF78607B6803F47813B3F5D01F00F036
S1133320AB80B3F5D01F1AD8B3F5602F00F0BF807F
S1133330B3F5602F08D8B3F5003F3CD0B3F5802F28
S11333402DD0002B27D0BEE0B3F5901F3CD0B3F5B1
S1133350B01F47D0B3F5801F00F0AD80B3E0B3F5E4
S1133360181F00F0AC80B3F5181F0AD8B3F5F01F8E
S113337025D0B3F5001F7AD0B3F5E01F00F08980A3
S1133380A1E0B3F5301F4ED0B3F5381F62D0B3F5CA
S1133390281F35D097E0FDF767F8F8609BE0FDF74C
S11333A063F8F8604E4B9B6803F00F03FA6822FA47
S11333B003F3FB608FE0FDF733F8F8608BE04948D6
S11333C0FFF764FEF86086E04648FFF75FFEF860AA
S11333D0434B9B6E1B0903F00F03FA6822FA03F3B5
S11333E0FB6078E03F48FFF751FEF8603C4B9B6E72
S11333F01B0A03F00F03FA6822FA03F3FB606AE086
S11334003848FFF743FEF860354B9B6E1B0B03F007
S113341003041020FFF76AFC03462344FA6822FAE7
S113342003F3FB6057E02F48FFF730FEF8602C4BA6
S11334309B6E1B0B03F00303FA6822FA03F3FB6091
S1133440274BDB6F03F007030133FA68B2FBF3F396
S1133450FB6040E02348FFF719FEF860204B9B6EA9
S113346003F00303FA6822FA03F3FB6033E01E4817
S1133470FFF70CFEF8602EE01B48FFF707FEF8602C
S1133480174B1B6F03F00303FA6822FA03F3FB6084
S113349021E01548FFF7FAFDF860114B1B6F1B097B
S11334A003F00303FA6822FA03F3FB6013E0FFF767
S11334B039FDF8600FE0FFF7D5FCF8600BE0FFF78B
S11334C085FEF86007E00023FB6041F201510748E4
S11334D0FFF76CFA00BFFB6818461437BD4690BD71
S11334E000800C4002001E00030020001493000022
S11334F080B584B000AF78600123FB737B6803F070
S11335000F03BB60BB68013B062B00F2938001A252
S113351052F823F03135000067350000A335000070
S11335203536000035360000DF3500000136000076
S1133530474BDB6A03F47053B3F5805F09D0B3F5EE
S1133540005F03D0B3F5006F06D008E00223FB73DD
S113355008E00323FB7305E00423FB7302E0052367
S1133560FB7300BF6EE03A4B9B6A03F00303022B2C
S113357006D0032B07D0012B08D10323FB730FE0E4
S11335800223FB730CE00623FB7309E0304B9B6AB8
S113359003F48033002B02D00A23FB7300E000BF46
S11335A050E02B4B9B6A03F00C03082B06D00C2B2A
S11335B007D0042B08D10323FB730FE00223FB7312
S11335C00CE00623FB7309E0214B9B6A03F4801390
S11335D0002B02D00A23FB7300E000BF32E01C4B37
S11335E01B6803F08053002B03D0B3F1805F03D03A
S11335F028E00723FB7302E00923FB7300BF21E0EB
S1133600134BDB6A03F46033B3F5803F08D0B3F5A2
S1133610003F08D0B3F5004F08D10923FB7308E03D
S11336200223FB7305E00323FB7302E00123FB7316
S113363000BF07E00023FB7341F628110548FFF79C
S1133640B5F900BFFB7B18461037BD4680BD00BFEF
S113365000800C401493000080B588B000AF7860FF
S11336600B46FB700323FB610323FB7600233B61C2
S11336707B6803F00F03FB60FB68013B062B00F241
S1133680478101A252F823F0A53600009B370000C1
S11336909B3700001139000011390000693800001F
S11336A09F380000FB78023B082B52D801A252F845
S11336B023F000BFD9360000E3360000ED360000E9
S11336C02F370000533700005337000053370000F2
S11336D053370000473700000423FB610023FB76C7
S11336E03DE00323FB610123FB7638E00223FB6109
S11336F00223FB76FFF730FB034601331846FFF73E
S11337006FFBFCF731FF0246864B9A4206D9864B83
S11337101B68854A43F06003136020E0824B1B68FA
S113372023F06003804A43F02003136017E0012371
S1133730FB610323FB76FFF70FFB034601331846B7
S1133740FFF74EFB0BE041F6E9117848FFF72EF93D
S1133750E4E041F6EE117548FFF728F9DEE0FB7E60
S113376001220121184600F0E7F8FFF74DFCFFF7AE
S113377053FD6D4AFB6953626D48FFF7C7FD03466D
S11337801846FFF72DFBFCF74BFEB8600021B86824
S1133790FFF75CFCFFF746FDC0E0FB78013B092B1B
S11337A03CD801A252F823F0D1370000D7370000EB
S11337B0E73700001D3800001D380000F73700000F
S11337C01D3800001D3800001D38000013380000AB
S11337D000237B6128E001220121002000F0ACF8E5
S11337E002237B6120E001220121012000F0A4F8E2
S11337F001237B6118E0FCF713FEB860B868FFF79B
S1133800EFFA012204214B48FFF746FA03237B61B8
S11338100AE000237B6101233B6105E041F6992125
S11338204248FFF7C3F879E0FB68022B0DD13E4B09
S11338309B6A23F4803323F003037A691A433B69B8
S11338401B04394913438B6268E0374B9B6A23F4AA
S1133850801323F00C037A6992001A433B691B0519
S1133860314913438B6259E0FB78072B02D0092BB3
S113387007D00DE02C4B1B682B4A23F080531360B8
S11338800CE0294B1B68284A43F08053136005E081
S113389041F6F4212548FFF789F83FE03EE0FB7844
S11338A0032B13D0092B21D0022B2AD10122012171
S11338B0002000F041F81C4B40225A6200BF1A4B12
S11338C0DB6A03F48033002BF9D020E001220121CC
S11338D0012000F031F8144B60225A6200BF124BF1
S11338E0DB6A03F40033002BF9D010E00E4B2022E6
S11338F05A6200BF0C4BDB6A03F40043002BF9D07F
S113390005E041F633310948FFF750F806E005E0D9
S113391041F629410548FFF749F800BF2037BD4665
S113392080BD00BF0048E80100800C4014930000F3
S11339300043020040800C4080B586B000AF0346CF
S1133940FB710B46BB7113467B71FB79042B32D898
S113395001A252F823F000BFA539000097390000F6
S11339607B3900006D3900008939000001233B6177
S11339700223FB6001237B6123E004233B610823D2
S1133980FB6003237B611CE010233B612023FB606D
S113399005237B6115E040233B618023FB60072303
S11339A07B610EE04FF480733B614FF40073FB6066
S11339B009237B6105E042F22F010E48FEF7F6FF72
S11339C014E0BB79002B0ED00B4A3B6913627B7960
S11339D0002B0BD000BF79690848FFF773F9034641
S11339E0002BF8D002E0044AFB6813621837BD4686
S11339F080BD00BF1493000000800C402C800C405C
S1133A0080B483B000AFEFF310833B603B687B600E
S1133A1072B67B6818460C37BD4680BC704780B4CC
S1133A2083B000AF78607B68002B00D162B600BF22
S1133A300C37BD4680BC704780B500AFFCF7F0FC86
S1133A4000BF80BD80B400AF034B4AF6E8529A60D1
S1133A5000BFBD4680BC704700600C4080B400AF1E
S1133A60034B0022C3F8842000BFBD4680BC7047CE
S1133A7000800C4080B400AF044B45F60E02C3F83E
S1133A80842000BFBD4680BC704700BF00800C404E
S1133A9080B584B000AF0346FB71FB79002B0BD1DA
S1133AA02B4BDB6A2B4A13601120FFF721FD0346E1
S1133AB01A46294B1A7047E0254BD3F8843003F09B
S1133AC00103FB60FFF7D6FF0023BB60214B1B689B
S1133AD003F00103BA681343BB601E4B1B6803F079
S1133AE01003BA681343BB601A4B1B6803F040030E
S1133AF0BA681343BB60174B1B6803F00403BA682E
S1133B001343BB60134B1B6803F48073BA681343FD
S1133B10BB600F4ABB6813620F4B1B78052B05D0A3
S1133B200D4B1B7819461120FFF796FD094B1B68B6
S1133B3003F00103002B02D1054B02221A62FB6839
S1133B40002B01D0FFF78AFF00BF1037BD4680BDB0
S1133B5000800C40702600207426002080B483B0BE
S1133B6000AF174B1B699BB21B029BB203F47C533F
S1133B70FB80134B9B691B091B0103F0F0039AB2F2
S1133B80FB881343FB800E4BDB691B0903F00F0317
S1133B909AB2FB881343FB80FB88B3F5827F03D37F
S1133BA0FB88B3F5017F01D1012300E0002303F07A
S1133BB00103DBB218460C37BD4680BC704700BF1A
S1133BC0D0FF0FE080B400AF00BFBD4680BC70479B
S1133BD080B400AF00BFBD4680BC704780B586B0DE
S1133BE000AF0346FB71FB79002B02D00020FFF7E6
S1133BF04FFF1F4B1B691E4A43F004031361FFF779
S1133C00ADFF0346FB75FB7D002B11D0194B1A68E1
S1133C10194B1340FB60174AFB68C2F88030154B00
S1133C205B6823F046033B61124A3B69C2F8843067
S1133C30FFF7C8FF30BFFFF7CBFFFB7D002B05D09C
S1133C400C4AFB6813600B4A3B695360FB79002BF9
S1133C5002D00120FFF71CFFFB7983F00103DBB2E4
S1133C60002B01D0FFF7E8FE00BF1837BD4680BD2A
S1133C7000ED00E000E100E09CF1FD0080B586B0BD
S1133C8000AF0346FB71FB79002B02D00020FFF745
S1133C90FFFE284BD3F8843003F001037B61FFF768
S1133CA0E9FE244B4FF420721A627B69002B01D089
S1133CB0FFF7D4FE204B1B691F4A43F00403136132
S1133CC0FFF74CFF0346FB74FB7C002B11D01B4B0E
S1133CD01A681B4B1340BB60184ABB68C2F880309B
S1133CE0164B5B6823F04603FB60144AFB68C2F87A
S1133CF08430FFF767FF30BFFFF76AFFFB7C002BC0
S1133D0005D00E4ABB6813600C4AFB685360FB790C
S1133D10002B02D00120FFF7BBFEFB7983F00103E7
S1133D20DBB2002B01D0FFF787FE00BF1837BD467A
S1133D3080BD00BF00800C4000ED00E000E100E029
S1133D409CF1FD0080B500AF0020FFF7A1FE00BF8D
S1133D5080BD80B500AF0120FFF79AFE00BF80BD93
S1133D6080B584B000AF124B1B6823F00C0343F002
S1133D700803BB600E4B1B6843F00C037B60FFF72A
S1133D8061FE0023FB6008E0094ABB681360084A2F
S1133D907B681360FB680133FB60FB68032BF3DD76
S1133DA0034ABB68136000BF1037BD4680BD00BF27
S1133DB000600C4080B487B000AFF860B9607A60EE
S1133DC0FB6803F10473DA00BB6813449B007B6156
S1133DD07B697A681A6000BF1C37BD4680BC704797
S1133DE080B485B000AFF860B9607A60FB681A6887
S1133DF0BB68DB431A407B681A43FB681A6000BF48
S1133E001437BD4680BC704780B483B000AF78607F
S1133E10044A7B68C2F81C3100BF0C37BD4680BC25
S1133E20704700BF0060004080B582B000AF034619
S1133E303960FB71FB79002B1FD0FB79012B19D062
S1133E40FB79022B13D0FB79032B0DD0FB79042BC8
S1133E5007D0FB79052B02D141F6FF730FE0002355
S1133E600DE04FF6FF730AE04FF6FF7307E04FF6DD
S1133E70FF7304E04FF6FF7301E04FF6FF733A68F7
S1133E80134103F00103002B04D14FF477710A4866
S1133E90FEF78CFD01223B6802FA03F30749FA7925
S1133EA018461346DB0013449B000B44143318607C
S1133EB000BF0837BD4680BD289300000060004065
S1133EC080B582B000AF03463960FB71FB79002BEB
S1133ED01FD0FB79012B19D0FB79022B13D0FB796E
S1133EE0032B0DD0FB79042B07D0FB79052B02D1D2
S1133EF041F6FF730FE000230DE04FF6FF730AE075
S1133F004FF6FF7307E04FF6FF7304E04FF6FF73BD
S1133F1001E04FF6FF733A68134103F00103002BED
S1133F2004D140F20B410A48FEF740FD01223B68F0
S1133F3002FA03F30749FA7918461346DB001344DF
S1133F409B000B441033186000BF0837BD4680BD8A
S1133F50289300000060004080B586B000AFB960CF
S1133F607A601A460346FB731346BB7300237B61D6
S1133F70FB7B002B1FD0FB7B012B19D0FB7B022B7F
S1133F8013D0FB7B032B0DD0FB7B042B07D0FB7BD7
S1133F90052B02D141F6FF730FE000230DE04FF62D
S1133FA0FF730AE04FF6FF7307E04FF6FF7304E078
S1133FB04FF6FF7301E04FF6FF73BA68134103F045
S1133FC00103002B03D1C4212248FEF7EFFC7B68D8
S1133FD0072B0ED87B689B00072202FA03F1FA7BB9
S1133FE07B689B0002FA03F31A461B48FFF7F8FEAE
S1133FF010E07B68083B7B617B699B00072202FA27
S113400003F1FA7B7B699B0002FA03F31A46134817
S1134010FFF7E6FEBB7B1A4679681148FFF7CAFE34
S113402097F820301A4679680E48FFF7C3FE01223C
S11340307B6802FA03F31846FFF7E6FE97F824308C
S11340401A4679680848FFF7B5FE00BF1837BD4621
S113405080BD00BF8C9300000061004004610040FB
S1134060086100400C6100401061004080B584B0DC
S113407000AFB9607B600346FB731346BB73FB7BE5
S1134080002B1FD0FB7B012B19D0FB7B022B13D001
S1134090FB7B032B0DD0FB7B042B07D0FB7B052B79
S11340A002D141F6FF730FE000230DE04FF6FF73DA
S11340B00AE04FF6FF7307E04FF6FF7304E04FF694
S11340C0FF7301E04FF6FF73BA68134103F0010375
S11340D0002B04D140F21B113948FEF767FCBB7B6F
S11340E0002B0DD07B68002B05D0FB7BB9681846EC
S11340F0FFF7E6FE04E0FB7BB9681846FFF794FE81
S1134100BB68072B20D82F49FA7B1346DB001344E6
S11341109B000B4404331A68BB689B000F2101FA0F
S113412003F3DB431340B97BBA68920001FA02F24D
S113413011462448FA7B19431346DB0013449B00C1
S113414003440433196025E01E49FA7B1346DB005F
S113415013449B000B4408331A68BB6803F1804383
S1134160083B9B000F2101FA03F3DB4302EA03013E
S1134170BA7BBB6803F18043083B9B0002FA03F35C
S11341801048FA7B19431346DB0013449B00034495
S113419008331960BB7B002B0DD17B68002B05D045
S11341A0FB7BB9681846FFF78BFE04E0FB7BB9681C
S11341B01846FFF739FE00BF1037BD4680BD00BF6B
S11341C08C9300000060004080B483B000AF78603E
S11341D039607B683A681A6300BF0C37BD4680BCFF
S11341E0704780B487B000AFF860B9607A60FB684C
S11341F003F10473DA00BB6813449B007B617B69A1
S11342007A681A6000BF1C37BD4680BC704780B412
S113421085B000AFF860B9607A60FB681A68BB6863
S1134220DB431A407B681A43FB681A6000BF1437EB
S1134230BD4680BC704780B483B000AF786001E0B5
S11342407B68DB697B68DB6803F48073002BF7D140
S113425000BF0C37BD4680BC7047000080B588B0F5
S113426000AFF860B9607A60FB707B68002B04D102
S11342704FF48A715448FEF799FB7B68002B00F0D9
S11342809E80FB7803F00303FB70FB681B6823F438
S11342904072FB681A60F868FB781B021A464FF4F8
S11342A04071FFF7B4FFBB68002B16D1FB68474A87
S11342B0934204D14648FFF729F8B8600DE0FB6843
S11342C0444A934204D14448FFF720F8B86004E01C
S11342D04FF497713C48FEF769FB4FF0FF33FB61E5
S11342E0FB681B6803F00203002B10D0FB78012B42
S11342F007D0022B08D0002B00D019E0374BFB610C
S113430016E0374BFB6113E0364BFB6110E0FB78A2
S1134310012B07D0022B08D0002B00D008E0324B31
S1134320FB6105E0314BFB6102E0314BFB6100BFF7
S1134330BA68FB699A4204D840F263112248FEF736
S113434035FBFB782B4AD35C7B617B697A6802FB83
S113435003F33B613B69002B05D14FF4BA711A4852
S1134360FEF724FB2CE07B689B00BA68D21A3B69F9
S113437013445A1E3B69B2FBF3F3013BBB61BB69B7
S1134380002B04DA4FF4BD710F48FEF70FFBBB6935
S1134390B3F5007F04D340F27B110B48FEF706FB14
S11343A0FB681B6803F00203002B04D0BB69002BDD
S11343B001D10123BB61BA69FB681A6100E000BF47
S11343C02037BD4680BD00BFA493000000A000407C
S11343D000B2040000A4004000C2040040164000E3
S11343E0C0D8A7008050740180841E004054890006
S11343F0002D3101A093000080B582B000AF786039
S11344000B46FB707B680B4A934208D07B680A4AD0
S1134410934204D04FF4CA710848FEF7C7FA7B6888
S1134420FA7800211846FFF7DCFE00BF0837BD46C6
S113443080BD00BF00A0004000A40040A493000081
S113444080B582B000AF786039607B68174A9342C8
S113445008D07B68164A934204D040F2A91115484B
S1134460FEF7A4FA7B6800225A6313497868FFF7C1
S1134470ABFE78683B685B7883F00103DBB21A46D5
S11344800121FFF7AEFE3B6859683B689A683B68B8
S11344901B7B7868FFF7E2FE3B681B781946786857
S11344A0FFF7AAFF00BF0837BD4680BD00A000404B
S11344B000A40040A4930000FFFF010080B588B071
S11344C000AF78607B68A24A934208D07B68A14A17
S11344D0934204D040F2FF119F48FEF767FA7B68CD
S11344E09B4A934202D19D4BBB6109E07B68994A88
S11344F0934202D19A4BBB6102E06FF0030314E2D2
S1134500BB699B687B617B689B6A3B613B6903F485
S1134510C063002B14D03B6903F40073002B03D059
S1134520BB69FD225A7007E03B6903F48063002BEA
S113453002D0BB69FE225A70BB6909221A70DFE1FE
S1134540BB691B78082B00F2C78101A252F823F043
S113455075450000C745000053460000A946000009
S1134560FB46000065470000ED4700002D480000B1
S1134570BD4800007B695B8803F01003002B09D061
S11345807B691B881B0A9BB203F0060343F0F0030C
S1134590FB610EE07B691B8803F0FE03FB617B6912
S11345A05B8803F00203002B03D0FB6943F0010393
S11345B0FB61BB6901221A707B68FA695A627B68E5
S11345C001225A609CE13B6903F08003002B0DD06B
S11345D080217868FFF7F8FDBB69FF225A70BB6938
S11345E008221A707B6802225A607EE13B6903F05C
S11345F04003002B00F0798140217868FFF7E4FD47
S11346007B695B8803F01003002B08D0BB6902228E
S11346101A707B691B88DAB27B685A6265E17B6930
S11346205B8803F00203002B0FD0BB6907221A70CA
S1134630BB691B797A69DB0013441B89012B40F0A9
S113464054817B6808225A604FE1BB6905221A70C5
S11346504AE13B6903F08003002B0DD08021786888
S1134660FFF7B2FDBB69FF225A70BB6908221A70BA
S11346707B6802225A603AE13B6903F04003002B55
S113468000F0358140217868FFF79EFD7B695B88E7
S113469003F00203002B03D0BB6903221A7023E149
S11346A0BB6905221A701FE17B695B8803F0100364
S11346B0002B09D07B691B881B0A9BB203F00603FD
S11346C043F0F003FB6104E07B691B8803F0FE0305
S11346D0FB617B695B8803F00403002B03D0FB6957
S11346E043F00103FB61BB6904221A707B68012259
S11346F05A607B68FA695A6202E13B6903F08003FD
S1134700002B0DD080217868FFF75EFDBB69FF2286
S11347105A70BB6908221A707B6802225A60E8E06A
S11347203B6903F04003002B00F0E38040217868EC
S1134730FFF74AFD7B695B8803F00403002B03D079
S1134740BB6907221A70D4E0BB6905221A70CBE05A
S113475000A0004000A40040A4930000782600209C
S113476084260020BB695A88BB691B797969DB0000
S11347700B441B899A4224D3BB6900225A80BB692B
S11347801B790133DAB2BB691A717B695B8803F068
S11347900403002B03D0BB6903221A70A4E07B69D5
S11347A05B8803F00103002B04D1BB691B79012B47
S11347B040F29980BB6908221A707B6802225A6011
S11347C09EE0BB691B797A69DB0013445A68BB69B4
S11347D05B88591C88B2B969488013441B781A460F
S11347E07B685A62BB6906221A7089E03B6903F050
S11347F08003002B0DD080217868FFF7E5FCBB69AE
S1134800FF225A70BB6908221A707B6802225A6020
S113481071E03B6903F04003002B6CD040217868C1
S1134820FFF7D2FCBB6905221A705DE03B6903F017
S11348302003002B61D0BB691B797A69DB00134428
S11348401B89FB607B68DB69FB72BB695B881A466A
S1134850FB6893420ED9BB691B797A69DB00134468
S11348605A68BB695B88591C88B2B969488013448B
S1134870FA7A1A70BB695B881A46FB6893420CD8B3
S1134880FB68012B02D17B6808225A60BB690822AD
S11348901A707B6802225A602FE07B6804225A60F7
S11348A0FB68012B29D9BB695B881A46FB68013B6D
S11348B09A4222D17B6808225A601EE03B6903F4C5
S11348C08073002B1BD04FF480717868FFF77CFC59
S11348D0BB6909221A7012E0BB69FB225A70BB69DA
S11348E009221A700CE000BF0DE600BF08E000BF0B
S11348F006E000BF04E000BF02E000BF00E000BF2C
S1134900BB691B78092B0BD17B6800225A63BB69F6
S113491093F90130012B05D1BB6900225A7001E0E3
S1134920012302E0BB6993F9013018462037BD46E4
S113493080BD00BF80B584B000AF786039607B680B
S1134940354A934208D07B68344A934204D040F2FB
S11349504B313348FEF72AF83B68002B04D14FF45F
S113496053712F48FEF722F87B682B4A934202D1F9
S11349702C4BFB6009E07B68284A934202D12A4B06
S1134980FB6002E06FF0030342E07B689B6803F086
S11349900103002B02D07B6820225A603B685B88AD
S11349A003F00203002B03D03B681B89002B09D0C2
S11349B03B685B8803F00403002B06D03B681B8A2A
S11349C0002B02D16FF0030322E0FB6800221A706F
S11349D0FB6801225A70FB6800225A80FB6800229F
S11349E01A71FB683A689A607B68C0225A607868DA
S11349F0FFF721FC0D497868FFF7E6FB7B685B6BEA
S1134A0043F4FC627B685A637868FFF757FD0346FA
S1134A1018461037BD4680BD00A0004000A40040E9
S1134A20A49300007826002084260020FFFF0100C4
S1134A3080B485B000AF78607B68FB60FB6893FA54
S1134A40A3F3BB60BB68B3FA83F3DBB21846143735
S1134A50BD4680BC704780B487B000AFF860B960D1
S1134A607A60FB6803F10473DA00BB6813449B00AB
S1134A707B617B697A681A6000BF1C37BD4680BCC5
S1134A807047000080B400AF034B00229A6000BF5F
S1134A90BD4680BC704700BF00600C4080B400AFCE
S1134AA0034B4AF6E8529A6000BFBD4680BC70478B
S1134AB000600C4080B584B000AF03460A46FB7129
S1134AC01346BB71FB791846FFF7B2FFF860BB7958
S1134AD0002B14BF01230023DBB21A46F9680348F4
S1134AE0FFF7B9FF00BF1037BD4680BD00A00C40E2
S1134AF080B582B000AF104B01229A600F4B9B68C7
S1134B0003F001037B607B68002B01D0FFF7C6FF35
S1134B10012200210A48FFF79EFF002200210848D5
S1134B20FFF799FF7B68002B01D0FFF7ABFF00BFB5
S1134B300837BD4680BD00BF00A00C4000600C409B
S1134B4024600C4080B485B000AF174B5B687B6079
S1134B500023FB600023BB601CE0144ABB68DB003D
S1134B6013445B683B60114ABB6852F833207B688E
S1134B701340002B0BD07A683B681340002B06D1FE
S1134B800A4ABB6852F83330FA681343FB60BB68C7
S1134B900133BB60BB680F2BDFD9FB6818461437A1
S1134BA0BD4680BC704700BF00A00C40B893000015
S1134BB080B584B000AF78607B68002B03D14621B8
S1134BC01B48FDF7F3FE1B4B5B69DBB29B00DBB2BA
S1134BD003F03C03FB73174B1B699B09DBB203F027
S1134BE00303DAB2FB7B1343FB737B68FA7B9A7093
S1134BF0104B1B69DBB203F03F03DAB27B685A70D7
S1134C000C4B9B691B09DBB21B01FB73094BDB6972
S1134C101B09DBB203F00F03DAB2FB7B1343FB7314
S1134C207B68FA7B1A7000BF1037BD4680BD00BF99
S1134C3038940000D0FF0FE080B483B000AF7860F8
S1134C404FF06043D3F8803E03F00103002B13D0F0
S1134C504FF06043D3F8003E03F00103002B0BD068
S1134C6000E000BF4FF060431B68002BF9D04FF009
S1134C7060437A68D2B21A707B6818460C37BD4616
S1134C8080BC704780B586B000AFF860B9607A60C8
S1134C9000237B6109E0BB685A1CBA601B78184684
S1134CA0FFF7CAFF7B6901337B617A697B689A42AB
S1134CB0F1DB7B6818461837BD4680BD90B587B0D8
S1134CC000AF0346FB71032200210120FCF78CF89E
S1134CD00246174B1A60164B186800230022002165
S1134CE0FCF7D8F8134B07F108040FCB84E80F0046
S1134CF001211148FEF79CFA012308220421022015
S1134D00FFF7B4F90123082205210220FFF7AEF9C9
S1134D100A4B03229A6307F1080319460748FFF771
S1134D208FFB074AFB79137000BF1C37BD4690BD4B
S1134D30F02600205094000000C2040000A40040AB
S1134D409026002080B58AB000AF03460A46FB7166
S1134D501346BB71002387F82630214B1B789BB286
S1134D603B8201237B82FB793B73BB797B7307F125
S1134D700C037B6102233B831A4B186800234FF01A
S1134D80FF320021FCF754FA07F1100319461648C4
S1134D90FFF7D0FD034687F8273005E01248FFF7F8
S1134DA08DFB034687F8273097F92730012BF5D080
S1134DB097F92730002B03D0002387F8263002E030
S1134DC0012387F82630074B1868002300220021AE
S1134DD0FCF760F897F8263018462837BD4680BDA2
S1134DE090260020F026002000A4004080B58AB060
S1134DF000AF03463960FB711F4B1B789BB23B82AB
S1134E0004237B82FB1D7B6101233B8307F10C039D
S1134E10FB6101233B84194B186800234FF0FF32D8
S1134E200021FCF705FA07F1100319461448FFF7AF
S1134E3081FD034687F8273005E01148FFF73EFB64
S1134E40034687F8273097F92730012BF5D097F9D7
S1134E502730002B01D000230AE03A7B3B681A700C
S1134E60064B1868002300220021FCF713F80123E5
S1134E7018462837BD4680BD90260020F026002025
S1134E8000A4004080B483B000AF0346FB7197F9DF
S1134E900730002B0BDBFB7903F01F02064997F95F
S1134EA007305B09012000FA02F241F8232000BF19
S1134EB00C37BD4680BC704700E100E080B483B08D
S1134EC000AF0346FB7197F90730002B0CDBFB792D
S1134ED003F01F02074997F907305B09012000FA24
S1134EE002F2603341F8232000BF0C37BD4680BC7A
S1134EF0704700BF00E100E080B483B000AF034618
S1134F003960FB7197F90730002B0ADB3B68DAB292
S1134F100C4997F907305201D2B20B4483F80023AD
S1134F200AE03B68DAB20849FB7903F00F03043B5B
S1134F305201D2B20B441A7600BF0C37BD4680BC76
S1134F40704700BF00E100E000ED00E080B483B0F2
S1134F5000AF7860034A7B68136300BF0C37BD461B
S1134F6080BC70470010084080B483B000AF786004
S1134F70054B5A6B7B68DB43034913404B6300BF0B
S1134F800C37BD4680BC70470010084080B483B025
S1134F9000AF7860054B5A6B04497B6813434B633D
S1134FA000BF0C37BD4680BC704700BF00100840EE
S1134FB080B500AFFBF762FB00BF80BD80B584B055
S1134FC000AF0020FDF742FE024632239A420AD087
S1134FD00020FDF7F7FD322319460020FDF71AFEE5
S1134FE00120FDF7EFFD0720FFF7B0FFEFF311827B
S1134FF04FF0BF0383F31188BFF36F8FBFF34F8F5D
S1135000BA607B60FCF7A0FDF860FB68002B07D05A
S1135010084B4FF080521A60BFF34F8FBFF36F8F6E
S113502000233B603B6883F3118800BF1037BD4603
S113503080BD00BF04ED00E0B0B586B000AF1D4BED
S11350403C1D1D460FCD0FC42B68236001211A4857
S1135050FEF7EEF800210220FFF72CFD02237B71FE
S11350604FF440533B810123FB6001237B753B1DBF
S11350701846FDF71BFD0220FFF776FFFF211F20D6
S1135080FFF73AFF1F20FFF719FF1F20FFF7FAFE73
S1135090322319460020FDF7BDFD0220FFF756FF1D
S11350A00220FFF773FFFDF7E7FD00BF1837BD4689
S11350B0B0BD00BF709400000043020080B483B010
S11350C000AF0346FB7197F90730002B0BDBFB792C
S11350D003F01F02064997F907305B09012000FA23
S11350E002F241F8232000BF0C37BD4680BC704754
S11350F000E100E080B483B000AF03463960FB7187
S113510097F90730002B0ADB3B68DAB20C4997F9B0
S113511007305201D2B20B4483F800230AE03B6803
S1135120DAB20849FB7903F00F03043B5201D2B20F
S11351300B441A7600BF0C37BD4680BC704700BFD5
S113514000E100E000ED00E080B400AF034BDB6C55
S11351501B0EDBB21846BD4680BC7047B081E00F21
S113516080B483B000AF7860044A7B68C2F81C3115
S113517000BF0C37BD4680BC704700BF00600040D4
S113518080B400AF034BD3F814311846BD4680BC3D
S1135190704700BF0060004080B584B002AF396042
S11351A011461A460346FB710B46BB7113467B71CD
S11351B0BA79F8793B7C01937B79009313463A687A
S11351C03968FEF7C9FE00BF0837BD4680BD000040
S11351D080B582B000AF0E4B01221A64FFF7B4FF12
S11351E00346FB713B1D1846FFF7E2FCFB790F2BCE
S11351F00AD93B79022B07D9064B1B6823F05003CD
S1135200044A43F01003136000BF0837BD4680BD55
S113521000000C40C0800C4080B582B000AFFFF7A6
S1135220AFFF78607868FFF79BFF054B1B68002190
S11352301846FBF787FF00BF0837BD4680BD00BF97
S11352400427002080B588B000AF6B4B186807F1C5
S1135250180100230022FBF7EBFFB7F918305B00BD
S1135260664A82FB03121A449213DB17D31A1BB249
S1135270FB80B7F918301A464FF4FA6303FB02F3C4
S11352805E4A82FB03121A449213DB17D31A9AB2B2
S1135290B7F906309BB219468901C91A8901194424
S11352A049000B44DB009BB213449BB21BB23B810D
S11352B0B7F91A305B00514A82FB03121A44921365
S11352C0DB17D31A1BB2BB81B7F91A301A464FF455
S11352D0FA6303FB02F3494A82FB03121A44921352
S11352E0DB17D31A9AB2B7F90C309BB2194689016D
S11352F0C91A8901194449000B44DB009BB21344C9
S11353009BB21BB2FB81B7F91C305B003B4A82FBAA
S113531003121A449213DB17D31A1BB27B82B7F918
S11353201C301A464FF4FA6303FB02F3334A82FB40
S113533003121A449213DB17D31A9AB2B7F9123034
S11353409BB219468901C91A8901194449000B44C1
S1135350DB009BB213449BB21BB2BB82B7F908308B
S1135360002B10DAB7F908309BB25B429BB21BB238
S11353703B81B7F906309BB25B429BB21BB2FB8008
S11353802D233B7101E02B233B71B7F90E30002B29
S113539010DAB7F90E309BB25B429BB21BB2FB81B1
S11353A0B7F90C309BB25B429BB21BB2BB812D237D
S11353B0BB7201E02B23BB72B7F91430002B10DA57
S11353C0B7F914309BB25B429BB21BB2BB82B7F9F4
S11353D012309BB25B429BB21BB27B822D233B7487
S11353E001E02B233B74064B1868391D002300226F
S11353F0FBF750FD29E700BFF826002003000180D9
S1135400FC2600200000000090B589B000AF424B9C
S1135410186807F10C0100230022FBF709FFB7F914
S11354200C30184600F0DCFF03461946184600F01D
S113543023FF03463949184601F0DAF80346FB61B5
S1135440B7F90E30184600F0CBFF0346194618464C
S113545000F012FF03463149184601F0C9F803462B
S1135460BB61B7F91030184600F0BAFF034619467D
S1135470184600F001FF03462849184601F0B8F821
S113548003467B617969F86901F0B2F8034618466E
S113549000F0BCF903462249184600F0F5FF034624
S11354A0184600F029FC1AA3D3E9002300F0A6FD56
S11354B003460C461846214600F088FE03467B60EE
S11354C07969B86901F094F80346184600F09EF92A
S11354D003461349184600F0D7FF0346184600F068
S11354E00BFC0BA3D3E9002300F088FD03460C4614
S11354F01846214600F06AFE0346BB60094B186853
S1135500391D00230022FBF7C5FC80E7AFF30080C0
S1135510EA2E4454FB210940F426002000FEFF46F5
S1135520000034430027002090B589B000AF264B1B
S1135530186800234FF0FF320021FBF779FE234B5C
S1135540186807F1180100230022FBF771FE204BB5
S11355501868391D00230022FBF76AFEBB69184650
S113556000F0CAFB03460C461A462346194801F0CC
S1135570EBFDFB69184600F0BFFB03460C461A46D8
S11355802346154801F0E0FD3B791946B7F906308A
S11355901A46B7F90830114801F0D6FDBB7A19460E
S11355A0B7F90C301A46B7F90E300D4801F0CCFDAE
S11355B03B7C1946B7F912301A46B7F9143009483A
S11355C001F0C2FDB3E700BF04270020002700203C
S11355D0FC260020A8940000C0940000DC94000085
S11355E0F09400000495000080B588B000AF7860A6
S11355F07B68FB61FB691B781846FFF75FFB202182
S11356002020FFF79FFBFB699B7807F114021146EA
S11356101846FFF7EBFBFB695A7807F114030133D3
S113562019461046FFF7E2FBFB691A7907F11403E8
S1135630023319461046FFF7D9FBFB69DA7807F104
S11356401403033319461046FFF7D0FBFB699A791C
S113565007F11403043319461046FFF7C7FBFB692F
S11356605A7907F11403053319461046FFF7BEFBB8
S11356703B7D9BB21B029AB27B7D9BB213449BB2CF
S11356801BB2BB81BB7D9BB21B029AB2FB7D9BB25A
S113569013449BB21BB2FB813B7E9BB21B029AB2AA
S11356A07B7E9BB213449BB21BB23B82084B1868AF
S11356B007F10C0100230022FBF7ECFB054B1868F3
S11356C007F10C0100230022FBF7E4FB9BE700BF7A
S11356D0F8260020F426002080B582B002AFFFF740
S11356E077FDFAF7EDFDFAF79FFD0020FAF7C8FD04
S11356F00120FAF7C5FD0023012209210120FEF74C
S1135700B5FC032200210120FBF76EFB0246314B5E
S11357101A60012300930123002209210120FFF7CD
S11357203BFDFF210B20FFF7E5FC0B20FFF7C6FC38
S113573000210020FAF770FF002206210A20FBF75F
S113574053FB0246244B1A60002206210A20FBF771
S11357504BFB0246214B1A60002212210A20FBF760
S113576043FB02461E4B1A60002208210A20FBF765
S11357703BFB02461B4B1A60002301930123009359
S1135780194B962219491A48FBF7BAFF00230193D3
S1135790012300930023962216491748FBF7B0FF14
S11357A000230193012300930023962213491448F4
S11357B0FBF7A6FF00230193012300930023962205
S11357C010491148FBF79CFFFCF7C2F80023184668
S11357D0BD4680BD04270020F8260020F4260020C2
S11357E0FC26002000270020100000201C9500004B
S11357F0E95500002895000045520000349500004A
S11358000954000044950000295500002DE9F04199
S113581020F00045B5F1A14F0446064608DBB5F17A
S1135820FF4F72DC002840F39F806B48BDE8F08195
S11358306A4B9D427ADCB5F1445F6BDB4FF0FF3776
S11358402146204600F020FE0146804600F01CFE62
S11358500546634900F018FE624900F00DFD294633
S113586000F012FE604900F007FD294600F00CFE2E
S11358705E4900F001FD294600F006FE5C4900F097
S1135880FBFC294600F000FE5A4900F0F5FC4146B5
S113589000F0FAFD58498046284600F0F5FD5749C6
S11358A000F0E8FC294600F0EFFD554900F0E2FC69
S11358B0294600F0E9FD534900F0DCFC294600F0DC
S11358C0E3FD514900F0D6FC294600F0DDFD014618
S11358D0404600F0D1FC214600F0D6FD7B1C014679
S11358E044D04A4B4A4D53F8271000F0C3FC2146DC
S11358F000F0C0FC014655F8270000F0BBFC002E68
S113590006DA00F10040BDE8F081014600F0B4FC85
S1135910BDE8F0813F4900F0AFFC4FF07E5100F04C
S11359206FFF00288AD02046BDE8F08100F07CF8A3
S1135930394B04469D421EDCA3F5D0039D4239DC5D
S1135940014600F099FC4FF07E5100F093FC4FF0BB
S113595080410546204600F08FFC0146284600F0B1
S113596047FE002704466BE72C48D1E7204600F0A9
S113597081FCBDE8F0812A4B9D4214DC4FF07F513D
S113598000F078FC4FF07F510546204600F07CFD86
S11359904FF07E5100F070FC0146284600F028FECE
S11359A0022704464CE701461E4800F021FE032767
S11359B0044645E74FF07E5100F05CFC4FF07E5109
S11359C00546204600F058FC0146284600F010FE2B
S11359D00127044634E700BFDB0FC93FFFFFDF3E6A
S11359E0D769853C59DA4B3D356B883D6E2EBA3DFF
S11359F02549123EABAAAA3E21A215BD6BF16E3D0C
S1135A0095879D3D388EE33DCDCC4C3E609500009E
S1135A1050950000CAF24971FFFF973FDB0FC9BFE1
S1135A20FFFF1B40000080BF20F00040704700BF14
S1135A3081F0004102E000BF83F0004330B54FEA3B
S1135A4041044FEA430594EA050F08BF90EA020FA8
S1135A501FBF54EA000C55EA020C7FEA645C7FEA3B
S1135A60655C00F0E2804FEA5454D4EB5555B8BF5E
S1135A706D420CDD2C4480EA020281EA030382EACF
S1135A80000083EA010180EA020281EA0303362D61
S1135A9088BF30BD11F0004F4FEA01314FF4801C34
S1135AA04CEA113102D0404261EB410113F0004F46
S1135AB04FEA03334CEA133302D0524263EB4303FD
S1135AC094EA050F00F0A780A4F10104D5F1200E9B
S1135AD00DDB02FA0EFC22FA05F2801841F10001F6
S1135AE003FA0EF2801843FA05F359410EE0A5F1CA
S1135AF020050EF1200E012A03FA0EFC28BF4CF0FB
S1135B00020C43FA05F3C01851EBE37101F00045B0
S1135B1007D54FF0000EDCF1000C7EEB00006EEBBD
S1135B200101B1F5801F1BD3B1F5001F0CD3490847
S1135B305FEA30004FEA3C0C04F101044FEA44529E
S1135B4012F5800F80F09A80BCF1004F08BF5FEA25
S1135B50500C50F1000041EB045141EA050130BD05
S1135B605FEA4C0C404141EB010111F4801FA4F1A8
S1135B700104E9D191F0000F04BF01460020B1FAFD
S1135B8081F308BF2033A3F10B03B3F120020CDA35
S1135B900C3208DD02F1140CC2F10C0201FA0CF013
S1135BA021FA02F10CE002F11402D8BFC2F1200C78
S1135BB001FA02F120FA0CFCDCBF41EA0C0190402E
S1135BC0E41AA2BF01EB0451294330BD6FEA040477
S1135BD01F3C1CDA0C340EDC04F11404C4F1200262
S1135BE020FA04F001FA02F340EA030021FA04F374
S1135BF045EA030130BDC4F10C04C4F1200220FACB
S1135C0002F001FA04F340EA0300294630BD21FA08
S1135C1004F0294630BD94F0000F83F4801306BFCE
S1135C2081F480110134013D4EE77FEA645C18BFC2
S1135C307FEA655C29D094EA050F08BF90EA020F59
S1135C4005D054EA000C04BF1946104630BD91EA51
S1135C50030F1EBF0021002030BD5FEA545C05D154
S1135C604000494128BF41F0004130BD14F5800493
S1135C703CBF01F5801130BD01F0004545F0FE4107
S1135C8041F470014FF0000030BD7FEA645C1ABF3C
S1135C90194610467FEA655C1CBF0B46024650EA73
S1135CA0013406BF52EA033591EA030F41F400219F
S1135CB030BD00BF90F0000F04BF0021704730B525
S1135CC04FF4806404F132044FF000054FF00001FA
S1135CD050E700BF90F0000F04BF0021704730B5BB
S1135CE04FF4806404F1320410F0004548BF404290
